:20000000003A01200D05020039FB021039FB021039FB021039FB021039FB021039FB0210CD
:1C00200039FB021039FB021039FB021039FB021039FB021039FB021011FB021002
:20004000BA492DE9F04F0446B74ADFF8E8920E68A578507800279046ADF1540D29460C29B1
:2000600007D9DFF8CCB2DFF8D0A2203933290FD94FE3DFE811F069055A0544052905090519
:20008000F304EF04D904C3044E03B604B2049204DFE811F07F047B04770467046304E8027A
:2000A0004D042B04AD0283023F033F033F033F033F033F030704EC03CF03B403550299038A
:2000C0003402FC013F033F033F033F033F033F03E801B5019C013F03880379017F037303E6
:2000E000660354012A01E50062035E035403C000440382004103670046003400E1788DF889
:200100002A7031F07F0006D011F07F0F0CBF381C0120CA49087053210DF12A0300F0EABC40
:2001200008F1110332203946012226F0F9FA08F1120333203946012226F0F2FAC84898F810
:2001400011100078012905D04FF400611FF036FB00F0FDBC4FF40061642226F03EFE00F00E
:20016000F6BC8DF82B7078B9E41C204626F0FEFC0546A01C0446083026F0F8FC02462146C4
:20018000284624F0AEFC00E012208DF82B0051210DF12B0300F0AEBCE01C26F0E7FCE51C83
:2001A000AE784FF6FF748DF80A600546ADF80850AC4218D0E01EA84215D0A01EA84212D0FD
:2001C00002208DF80C00ADF80E5003A81CF048FD012818BF4FF001090CD1BDF80E00ADF8DF
:2001E0000800012000E038468DF80B0002A81EF09FFA8146E41EAC4204DC012088F82A0035
:2002000088F82B6022F0ACFA8DF82C904F210BAB00F070BC20798DF82E00E078012814D0E7
:20022000022809D0032805D052200DF12E0124F0EBFD0FE03C4600E0012452200DF12E010B
:2002400022F0CEFA88F8004004E052200DF12E0122F0C6FA4D210DF12E0300F04BBCE178C2
:2002600038465EB13279914205D1F2880DEB4003401CC0B21A813668002EF3D18DF830003A
:200280009DF83000012404EB4000C0B205461AF07FFE5FEA000806D18DF8307049212246E2
:2002A0000CAB00F028BC02469DF8300002F8010B38469DF8301081420ADC652049212A4645
:2002C000434622F041FD404622F02AF900F03FBC0DEB400108310B7813700988401CC0B2C8
:2002E00009125170921CE4E7301CE4788DF8317013D03E4601798C420BD11EB905680B49B8
:200300000D6002E001683160056822F009F9284601E0064600680028ECD11CF009FE0DF11A
:2003200031034721E6E3C04678450020FC490020E75B0020C04400204E410020E01C10F8D7
:20034000014B26F013FC0146C5480068224650B13E4603799A4202D1C388994205D0064611
:2003600000680028F5D1012008E006B9BC4E0168316022F0D5F81CF0DBFD38468DF8320063
:200380000DF13203CDE739460DF12200062207911CF02CFCE01C07A925F08AFA8DF82200F7
:2003A000079870B101888DF8231046888DF8256009128DF8241031128DF8261000798DF894
:2003C0002700432106220DF1220394E364788DF8377048B1012805D002281CBF01208DF826
:2003E000370004D1022000E004200FF01BF924F01F04202C40F0AB830DF1370379E32046DD
:2004000090F80180C01C26F0B1FB59460A7849468E6856B13C4633799A4202D1F388984256
:2004200005D034463668002EF5D101200EE03CB9346804B93C468C6004E0C046A041002025
:2004400030682060304622F06BF8384628F01F088DF83800B8F1200F40F079830EAB48E337
:200460001441002020464478C01C26F07FFB01465846007820F0E6FC24F01F048DF8390035
:20048000202C40F064830DF1390332E3E41C204626F06CFBA41CADF8080014F8010B04211D
:2004A0008DF81000204625F010FB0646201D10F8019B10F8018B26F059FB044631464A46A5
:2004C000434602A800941EF05BF88DF83A009DF810000F280FD1022053468DF81000188889
:2004E00031464A46ADF80800434602A800941EF047F88DF83A000DF13A036BE220782646E9
:20050000042806F1030614BF16F8010B02208DF81000304626F02AFBD34CADF80800B01CC2
:20052000012610F8011B2670027802A81FF0C2FC8DF83B000DF13B03277032464BE202208F
:20054000E41C8DF81000204626F010FB4E46A11CADF808000C7A706826F063FC7168C4F31E
:20056000400804F00104B8F1010F0F7204D17268107A40F040001072012C03D1087A40F022
:2005800080000872484602A9342209231FF01CFD0DF13D038DF83D00ABE20226E41C8DF844
:2005A0001060204626F0E2FAA41CADF80800204626F0DCFAA278804602A84146144625F034
:2005C00015FC8DF845009DF810000F280CD1504600888DF8106041462246ADF8080002A82E
:2005E00025F004FC8DF845000DF14503F2E10226E41C8DF81060204626F0B8FAA41CADF853
:20060000080014F8010B8DF84700204626F0AEFAA41C14F8019B804602A90DF14700424624
:2006200000944B46019721F0AFFD8DF846009DF810000F2811D1504600888DF810603E4620
:2006400002A94246ADF808004B4600940DF14700019621F099FD8DF846000DF1460348E2D6
:20066000FC490020A946E51CA878B846FE280BD1E878FF2808D12078082805DB284626F079
:2006800075FA294624F0B0FC284608A925F09CFC041C0ED118201AF07BFC5FEA000807D010
:2006A000BDF8200039461822434626F039F800B1C82419201AF06CFC061C20D05CB9701CE1
:2006C0002946082225F066FD06F109004146102225F060FD04E0701CFF2118221CF086FA88
:2006E0003470652049461922334622F02DFB3046394619221CF07AFA304621F011FFB8F164
:20070000000F00F024824046394618221CF06EFAD9E502271BE21CF021FE18E2E01C26F066
:2007200025FAE51C0246A81C10F8011B1DF008F94E210DF12D038DF82D00DBE18DF82F702C
:2007400025F0D0FD0DF12F034C218DF82F00D1E120461CF0C9FDFAE120461EF07CFEF6E1DC
:20076000E01C26F003FA6179A2791EF016F846210DF133038DF83300BCE1E01C26F0F6F968
:200780006179A27912F0F8FB45210DAB8DF83400B0E1E01C12F038FA44210DF135038DF8B7
:2007A0003500A7E1E01C26F0E1F9E51CA91C0B4608310A4619461FF07DFE42210DF136036D
:2007C0008DF8360096E10220E41C8DF81000204626F0CCF94E46A11CADF808000C7A706893
:2007E00026F01FFB706802A935220923047248461FF0EAFB0FAB8DF83C00EBE00220E41C63
:200800008DF81000204626F0B1F9ADF80800A0780DF13F0602A933228DF83F000123009697
:200820004846019721F0B0FC0DF13E038DF83E005FE10220E41C8DF81000204626F096F9D1
:20084000ADF80800A0780DF1410602A932228DF84100012300964846019721F095FC10AB8C
:200860008DF8400045E1C0469C4B00200220E41C8DF81000204626F079F9ADF80800A07816
:200880000DF1430602A931228DF84300012300964846019721F078FC0DF142038DF84200DC
:2008A00027E10220E41C8DF81000204626F05EF9A41CADF808000421204625F006F94E4606
:2008C000221D014612F8018B7068137825F056FC02A900F8018B30220370484606231FF078
:2008E00073FB11AB8DF8440003E10126E41C8DF84860601C26F03AF9814604F10B0026F02B
:2009000035F9804694F800A0637BA07B23F018F80093E01C49465246434614F0F3FA12ABAE
:200920008D498DF84800042026F050F905E60126E41C04218DF84960204625F0C6F8217959
:200940001EF0DCFE85498DF84900022026F03EF983490DF149030320E6E720461BF0D6FC5B
:20096000F5E0E41C204626F001F9A11C0B4608310A4619461FF09EFD0DF14A038DF84A0072
:20098000B7E020461BF05FF8E1E020461BF018F8DDE0204610F08AFDD9E0E01C26F0E6F863
:2009A0004E464FF6FD740F22ADF8084071688DF8102002230412152201F8010B48460C70C0
:2009C00002A9B7701FF000FB39468DF84B000DF14B03B170012229468DE0204619F056FCBF
:2009E000B5E0E41C204626F0C1F8A11C0A7A3B4622F0A8FC13AB8DF84C00EBE70220E41C32
:200A00008DF81000204626F0B1F8ADF80800A01C26F0ACF80146112202A825F0E7F90DF1E2
:200A20004D038DF84D0064E00220E41C8DF81000204626F09BF8ADF80800A01C26F096F87D
:200A40000146102202A825F0D1F90DF14E038DF84E004EE0204610F0D7F978E00220E41C94
:200A60008DF81000204626F081F8ADF80800A01C26F07CF80146052202A825F0B7F90DF11E
:200A80004F038DF84F0034E00220E41C8DF81000204626F06BF8A41CADF80800204626F09D
:200AA00065F84E467268A1781070726803125370706803230422817002A948461FF084FA45
:200AC00014AB8DF8500014E00220E41C8DF81000204626F04BF8ADF80800A01C26F046F85B
:200AE0000146032202A825F081F90DF151038DF8510029460122652022F026F927E00226B2
:200B0000E41C8DF81060204626F030F8ADF80800A01C26F02BF80146324602A825F066F9BD
:200B20000DF152038DF85200E3E7E41C204626F01DF8A41C14F8011B227822F035FF0DF16A
:200B400053038DF85300D4E7204617F089FF384615B0BDE8F08FC046F5310200A750020029
:200B6000B15E01002DE9F04F04464FF6FE70ADF15C0DADF854009B4840784FF00008022807
:200B800012D19848007878B92089002807BF30204146102001210FF031FF8DF8568052202D
:200BA0000DF1560121F01CFE6068217A08AA13F005FA002800F0A1849DF822000228B4BF0D
:200BC000012747469DF824000228A8BF4746BDF82A104FF6F87088420ED04FF6FE70401F33
:200BE000884209D04FF6FE70001F884204D04FF6FE70C01E884200D1474625F087FF9DF8F9
:200C00002310884240F07984002F00F0768475484078022804D19DF85100002840F06D84EE
:200C2000208D9DF82660678EADF84C00ADF82E7056B161689DF821209DF83C30012025F0E6
:200C4000FDFA002840F059849DF82570DFF85C92DFF85CA24646002F49D19DF83D00474670
:200C600058BBBDF82A00034621F0FAFB4546022808BF0125002D9DF8225018BF01274946CF
:200C80000988994208BF47F0020727B1002D14BF402120210F43184621F0E2FB012808BFD9
:200CA00047F00107002D3BD01298007825F07CFD012818BF27F0010732E09DF8411041B104
:200CC000FF2906D09DF84000119A22F01FFE50B126E05246BDF82A10508F884205D092F8D1
:200CE0004A0004281CD101261AE0222718E0BDF82A10FF2023F016FD002804BF3D1C082788
:200D000008D09DF8250047F001052C2740F001008DF8250005F00305012D08BF47F0110795
:200D200030489DF82650407830F0010005D107F002010E4308BF47F08007DFF8B0C295B91A
:200D400061460E787EB107F0220122290BD007F04201422940F0D18312990978062918BF9C
:200D6000072940F0CA83F9094FEAA7155AD3BDF82A20129948B96046C01C0078800804D39E
:200D80000878401E0A282FD909E00878C01E01282AD9001F28D0C01E26D0801E24D0B8F1A2
:200DA000000F21D148460088904240F0A6830D780520BDF82C408DF8110004A824F038FC9C
:200DC000002800F09A830269032313271370511C0F704C7022128A70CD7044800AF058F96E
:200DE0008BE3C0467845002068081BD30878032802D148780D2815D09DF8280038B1BDF891
:200E00002C000E990DF092FE012800F072839DF8270038B1BDF82A000D990DF087FE01288F
:200E200000F0648309F10E00B4F844100088884209D1CDF80080208DB4F8421094F84620C5
:200E400043460BF0CFFF9DF82600002849D0208DB4F8421021F020FA061C2BD19DF851006A
:200E600090B99AF8900001283BD112980078062801D1680835D2BDF82E104FF6F870C01DBC
:200E8000884240F0AD8038E3042024F03AFB011C00F033836420087001274F70208D488088
:200EA0009AF8000020F0CAF927E3C0464E410020144100209DF821106068F3780A18527BB1
:200EC0009A4203D0F27040467060606840180421401C24F0FAFD7168814200F20E83401C84
:200EE0007060A3484078022800F06A8230F0010040F003839AF832008008C0F0FE829DF891
:200F0000510058B1BDF82C0025F0FBF8002800F0F4826168487800F0DF0048709DF8320029
:200F200038B161688879401E8871C0B28DF8320008B907F07F07380924D39DF82500F9084D
:200F40004FF4805814D279091AD3811011F0070F01F0070604D0072E1CBF761EF6B20EB994
:200F600007F07F0700F0E30040EA8600C0B205E020F01C00C11021F0030108438DF8250013
:200F8000616808729AF84A00042800F0E081092800F0DD8117F0610F40F0EC809DF822006C
:200FA000012811D112980078052800F0D98003280AD1BDF82A0025F0A4F828B1218D08A8C1
:200FC00015AA002301F086FB9DF8320080B99DF82200012804D112980078032800F08D82BC
:200FE00008A821461FF016FB87E2C0464341002024F0D4FD002840F080829DF83D0000286E
:201000006DD19DF82400BDF82A10FD100028ADF854102ED13A0930D29DF82220012A28D06E
:20102000084600211CF030FB002620B14079012816D0022814D0BDF85400B4F8441021F023
:201040002BF928B1807824F08FFA08B1082807DBBDF82C0025F055F818B104208DF824005A
:201060000126BDF82A10002E08BF022272D09DF824006A0838BF002300D340230DF13D0247
:201080001CF03CFB30B16168087848F0200800F03F0008709DF83D0040B1BDF82A1010A872
:2010A00021F0BEF948F04008ADF854009DF82200012806D0BDF82A00BDF82C10002218F03F
:2010C000EDFD68082CBF40220022BDF82C10BDF82A0015F01BFE08B148F0200833E09DF898
:2010E00040009DF84110119A22F010FC00282ED09DF8410038B9BDF82A00ADF8540025F027
:2011000034FE00BB1DE011999DF8286001EB400030F8020C002EADF854000CBF0821102170
:201120009DF8270008B10831C9B29DF82500002200B1012266688918491CCAB2905D401E3B
:20114000905548F0400824F01DF881469AE0BDF82A100B22BDF82C0000231CF015F8CCE1DA
:20116000218D08A815AA002301F0B4FAC5E1C0467845002078084FF000095DD39DF8330047
:20118000B4F828B0C24D494616901E20EA79169B934206D1BDF82C302A88934201D1AE78F9
:2011A0002EB9401E05F1080501F10101EED11E2921D0AE79E6B1BAF84810584623F062FB26
:2011C00008B1761EAE71C84833210279FF2A02D00288934504D0491E00F12400F5D102E06F
:2011E000A879401EA871A8794828A4BF4E46AE7127F0600720E023F0C5FF81469DF83200CD
:2012000020B9208DBDF82C10884215D0218D08A84A4611F001FA58B1380932BFBDF82A00A4
:201220004FF6F870C01D48F00408ADF8540003E027F020074FF00009B8094FEAA71510D3E5
:2012400094F8460094F8476094F948308DF81000E26B8DF8116004A98DF8123008A804F094
:20126000FFFE68080ED3218D08A815AA4B4601F031FA5FEA000905D012980078012808BF1D
:2012800048F01008BDF854104FF6FE70884208BF4FF000099C48C07E01282BD1618E4FF6DE
:2012A000F870C01D884225D0218D884222D0BDF82A204FF6F870401C90421BDDBDF82C000D
:2012C000884217D025F051FDA0B10179012918BF02290FD101218DF810104088ADF81C00D3
:2012E00004A81FF097FC28B105A81FF007F808B121F036FA37F07F0000F0FF80B9F1000F44
:2013000000F0FB80208919F043FE071C00F0F5806168228924F03EFF002605969DF82200AA
:201320008DF81000CDF80090CDF8048004AD0296BDF854100395228D237A384615F002FAB5
:20134000002800F0DA80384621F0EAF8D5E04946BDF82A00098881420AD021F081F80228A5
:2013600006D09DF8250000F00300012840F0C5809DF8220090B112980178042904D19DF89A
:201380003C10022900F08A800078072803D19DF83C1004297ED0032875D0AEE094F8460035
:2013A0008DF8100094F847708DF8117094F948608DF81260E26B08A804A904F051FE9CE0BA
:2013C0009AF84A00042818BF092840F09680B80969D212986908C0F090800178042903D166
:2013E0009DF83C10022959D00178072903D19DF83C20042A4ED0032945D00C297DD1401CDE
:20140000414A10F8014B0578174601215120D21CFD7025F035FC3A4801263B4606705F7967
:20142000384844B9002F14BF4EF660244FF47A7450F8270003E0203000684EF660244443DB
:2014400003204146B4FBF0F44FF480400FF0D6FA9AF8000002211EF0B1F9680808D2A80816
:201460004BD39AF800000221224625F0B3FC44E04FF48040214617F049FA4FF4804031461B
:201480000FF0BCFA39E008A8002113F0C3FB34E04402002008A81BF079F92EE0002008A966
:2014A0000CF050FC29E094F8460094F847709DF832508DF8100094F948608DF81170012DB1
:2014C0008DF812607FF476AF208DBDF82C1088427FF470AFBDF82A0020F0C2FF022808BFE2
:2014E0008DF8328066E7C0462C100020BDF82A0001E0BDF82C001FF045FD17B0BDE8F08F29
:20150000B0420020E8870200784500202DE9F04FC14DC24CDFF808A3C44E88465FEA1840F7
:20152000ADF11C0D80F09E826F78DFF8F892DFF8F8B25FEA580080F01B82384630F001003E
:2015400040F091805FEA980058D25FEA981044D25FEAD830C0F087800120022123F078FB66
:20156000C5B20DB3E80019F013FD071C1DD0C04C82464FF0010933262079012818BF0228EA
:201580000DD18DF804906088ADF8100001A81FF041FB20B102A9504625F043FC8246761E01
:2015A00004F12404E8D100E0002797B175B10F204FF6FC768DF80C001F24ADF8046001A973
:2015C0002A463B46C248009416F03AFE384620F0A7FF88F4804000F007BC207A38B92078F8
:2015E000062802D1072024F059FE24F031F9E07910211EF079FB88F02000F5E3207AE8B963
:201600002178E079082917D124F0D8FA092024F045FEBF480078052806D0072809D10720A7
:20162000012106F0DFFA04E0012023F001FC1DF055FA24F00DF913E010210FE025F060FAAC
:20164000EF2803DB002023F0F3FB09E025F058FA1030C0B225F066FAE07901211EF044FB35
:2016600088F00200C0E3CE48CE4B0668B3F900005FEA581180F04E815FEA181028BF88F043
:20168000080080F0B1835FEA582080F0D1805FEAD80080F0B78037F001001CD15FEAD8100E
:2016A00019D32069A0B118F0D7F820690768206920F036FF27615FB1FA8802E0F888801AB1
:2016C000F8803F68002FF9D1E079402125F085FB88F0400088E35FEA182064D25FEA9820C8
:2016E0005CD2C84C5FEA18302CD25FEAD82027D3142019F04DFC071C1FD0002524342E4655
:20170000207A012812D10097042029463246142321F0FAFC50B920683860606829461422AD
:201720003B467860042022F00FFA26726D1C0C34C82DE5DB384620F0F3FE88F4806053E3EA
:20174000002051E3182019F023FC071C23D000252E46207A012812D10097062029463246DC
:20176000182321F0D1FC50B9206838616068294618223B467861062022F0E6F926726D1C23
:201780000C34032DE5DB3846314618221BF02EFA384620F0C5FE88F4006025E31AF0A8FBD5
:2017A00088F4007020E31DF099F9207805281DD1E07904211EF002F8E07904211DF058FC83
:2017C000062024F06BFD687830F0010007D15046007800F00700022801D025F06BF820F006
:2017E000BFFF1AF085FB1FF005FB01E020F0B8FF012022F06FFC0320012106F0F3F988F0AD
:201800008000F1E2FF20032121F040FF25F090F9C24901200860FEE778450020FC4300208F
:20182000DC5A002014410020CC450020D85A00204A4692F84A00082818BF042845D1243257
:201840002120742125F01CFABF4E6878716832880024B146A2423DDC30F001002DD1044C80
:20186000FF25002694F82100802822D102E0C0462C1000206788ADF8067023798DF808302F
:20188000A1798DF80A1062798DF809202088ADF80400E77984F82150237D8DF80B70A769B8
:2018A0008DF80C3031461022032001AB049722F04BF9761C2434332ED4DBBB48006800B1E8
:2018C00080470020022121F0E1FE88F480708BE2C0440020A30003EBC403CF5C37F07F0CDC
:2018E00013D017F07F07CF540B4405D101A8FF210C221BF07BF901AB012021460C2222F046
:2019000023F96878D9F804103288641CA4B2A1E7F6460020B0F1FF3F37465C4602D1B848A1
:201920000078A0805FB17968087818B1486800781CF0EEF83F68002FF5D1B4F90400B0F1CD
:20194000FF3F02D0C0B21CF0E3F825F0E5F8BD49088024F0E3FB687C012806D14C4620789E
:201960004FF40061642225F038FA88F010003BE2012024F093FC304667780179354612220F
:2019800001F0070A11F0070F16D1022F0CD0012F12D1082024F082FC24F08CFF0BE0C046DD
:2019A000D84B0020D0450020082024F077FC0020014613F013FC0246BAF1010F18BFBAF102
:2019C000020F45D107B3032F1ED0012F40D1BAF1010F3DD10A2024F061FC4C4620784FF4F4
:2019E00080611DF0EBFE502005A923F00DFABDF81400A4F84800BDF8140000211AF0BAFA83
:201A00002DE0C0466024002024F02CFF002818BF032F16D1022024F041FCB449E06809787F
:201A20001DF06CFE0246A879000911D28AB959464878401CC0B20428487004BFB848E06083
:201A400006E025F04EF90146012013F0C7FB02462AB1E07901214FF47A7225F0BEF988F006
:201A60000100C1E1DFF8C0B2B5E10646AD4A33782778116868781A46521E00F08781521EC6
:201A800000F09480183A00F0A081B93A00F099812A3A00F083801B1F77D05B1E6ED05B1EDA
:201AA00054D05B1E3CD05B1E2CD05B1E40F0908120BB707FDBF8109000BBB9F1000F06F1A6
:201AC000050A1BD0BAF1000F18D04F46B81C5146082223F00DFE18B9FF68002FF6D104E010
:201AE00038461FF043F8DBF81090B9F1000F05D19BF800004FF400611DF060FE304623F0F1
:201B0000C7FE65E1012818BF022840F06181307917F028FC20F024FE5AE1C0467C05204353
:201B2000002840F055813079012800F05181022806D0042840F04C81304619F0A9FD47E16D
:201B4000304614F095FA43E1EC4B0020012840F03F817088002840F03B81301D01A922F0D3
:201B600009F9012840F0348124F0D6FFADF80C00361D029601A817F021FE29E1002840F09F
:201B80002781304613F0F4FD22E1012818BF022840F01E81304609F0EFFF19E1002900F0C7
:201BA00017813046884713E1F8490020012818BF022840F00D81584680795E46072818BFCA
:201BC000082805D1237A1BB9012106F00BF82778032F00F08D800A2F14D0042F18D00D2F31
:201BE00016D00E2F14D00C2F12D0002F00F0F0801FF000F9E07910211EF076F8E8E0C04656
:201C0000E75B00207E48007800F0070001286FD0277A6078002F32D10020E0720746F770F4
:201C200020F090FA80B96878022803D1082001210EF0E4FE052024F031FB42F2107023F09D
:201C4000F7FDC5E018440020062024F027FB68480078000904D34FF4004001210EF0CEFE9C
:201C6000687830F0010007D16648007900F00700022801D024F01EFE1FF0BCF8A8E0E17A9C
:201C800001280BD003281ED1687802281BD1594900260E7001270320677113E0491CC8B2F5
:201CA0000428E07204DB54480078012809D00AE0524800884FF6FF7181421CBF0426A67210
:201CC000E8D10020607022F0C5FA21F083FD48480078000902D3287D012879D160780328F8
:201CE00076D1082001210EF089FE71E021470020207A002848D1E07910211DF0F5FF20F07F
:201D000021FA98B96878022803D1082001210EF075FE052024F0C2FA012020F0A1FD57E0C3
:201D200000F8FF0774470020F04600206F78207837F001070AD10A2808D13149097801F0F4
:201D40000701022902D02B4A0821117003280BD11FF050F8B079022806D1012022F0BAF9F1
:201D60000220012105F03EFF062024F097FA687830F001002CD12248007800F00700022821
:201D800026D024F097FD23E00020C6E7022F1FD1012818BF02281BD124F030FF28B115F07D
:201DA00051F9A8B16878022808D024F05DFF00280CBF0020012021F011F909E01BF0F4F8FF
:201DC00006E0304606F0B2F802E0304608F0A0F8069823F09DFCE0791DF058FF002806905A
:201DE0007FF443AE88F4004007B0BDE8F08FC046DE5A00205E4100202C4700205C4100207B
:201E0000DC5A0020D85A0020B84A2DE9F04F0846ADF14C0D11780F90000C80F0308492464E
:201E2000B34D0F9A6878920B80F0FF83022813D10F9A520810D39AF850000F2807D19AF813
:201E40004A0020B1012802D0002020F0F5FF0F9880F0010000F033BC0F9A920980F01A8300
:201E6000DFF89492DFF8948230F0010740F0B8820F9A520980F039820F99C90980F0C0818C
:201E80009C490F9F0A78390A80F0AB813946490A40D23946090B28D20F999AF80370490BDC
:201EA00019D20F99C90BC0F09B824C46A06A70B1297D01290BD18047E06A00B180479AF86A
:201EC00000004FF480414FF47A7224F083FF0F9880F48040F3E327B100208AF8030020F0FB
:201EE000CBF80F9880F48050E9E320F0C5F8687C01280BD1A97C49B19AF800004FF47A72D2
:201F000012FB01F24FF4006124F064FF384680F40060D4E324F000FE4FF6FE7B834500F015
:201F20005C819AF832008008C0F0578100263446304622F0A1FE071C19D03879012816D05D
:201F4000022814D0F879411CF9719AF88B1081420DDABC727C72388822F044F8388801A9D0
:201F600023F042F801A81EF0C9F920F0F9FB761C332EDDDBA8F11C0614275D46119436F880
:201F80001C0F85420CD0307B9AF88B40411C8442317305DA1198B0747074308822F022F830
:201FA0007F1EECD14C46032104F13C0010F8047F0FB17F1E0770491EF8D1B04C332605F106
:201FC000010934F8240F81451FD001208DF804006788ADF8107001A81EF01CFEA8B1A8F162
:201FE0001C05142735F81C0F2188814208D0BDF80610814204D002A8A91C23F0C9FF10B17C
:20200000284624F056F87F1EECD1761ED9D1119D2C46284622F030FE48B1077937F00407DF
:2020200005D1807A23F0A0FA08B1641CE4B26D1C332DEEDB23F0C6F9119E5FEA00080ED0F2
:202040003546284622F034FC28B1807C23F08CFA08B1761CF6B26D1CEDB2A845F1DCA01959
:20206000C7B2002F4CD0B80018F092FF1090002808BF119F46D0BA00FF211AF0B7FD119EAF
:202080003546B44218DD284622F0F6FD031C10D0187930F004000CD1987A23F065FA011C35
:2020A00007D0009718885A7A109B19F00FFD761CF6B26D1C332DE4DBB8F1000F22D0119C45
:2020C000204622F0F5FB061C0AD0B07C23F04CFA011C05D00097109B3088727C19F0F6FC42
:2020E000641CE4B2A045EBDC0CE0C04614410020784500200A4B0020B04200209C04002093
:20210000119810909AF83000002808BF4FF0620805D024F087F8C0F154005FFA80F80320BB
:20212000B8F1600F98FBF0FAA8BF4FF01F0ADDF84090ABF1020BB8F1000F0EBF119D202575
:20214000DDF84480BA45A6BF3C1C45F040055446032014FB00F0801C8DF8050001A823F012
:2021600067FA4E46031C26D01869082104F01F02017045EA02014170801CA4B12246C01E0B
:20218000361F16F8041F00F8031F318809124170B17801F0070CF178521E01F0070141EAF0
:2021A0000C118170EDD1A3F802B001209876184608F06EFF00E00120E90906D2641EE4B231
:2021C0000CB109EB84093F1BFFB205F040052843B1D0109808B120F0A3F90F9880F4807078
:2021E0006DE2104306D1A948C178012902D100218170C1701EF08AFF384680F080005EE2B7
:20220000A34C1E2600214FF006084FF00409A778002F43D07F1EFBB26079A37023F08EFE9B
:20222000071C3AD06BB9787B022808BF87F80D8033D087F80D803868407BF0211FF058FD7E
:202240002BE0A3791BB9787B032812D025E023791BB3E078401EC3B2E370F3B99AF8250033
:20226000E0702079401EC3B22371787B032814D133B92046394620F0B3F90EE00810002058
:2022800087F80D9024F02DFD00F00F00401C38819AF8000020211DF027FD0121761E04F121
:2022A0000804B4D19AF80000012910D040211DF085FA95F82A00012813D1002085F82A0079
:2022C00095F82B0017F04EF820F04AFA09E0402120F006F928B99AF800004021642224F0DE
:2022E00079FD0F9880F04000E9E10846102120F0F7F830B99AF8000010214FF47A7224F0DA
:2023000069FDBB48DFF8EC82417808F2AC54491ECFB217BB012141700020052123F048FB33
:20232000071C1BD006253846052123F041FB0646388978B1401E80B2388158B97889C00818
:2023400002D3387B21F036FE7D733868407BF0211FF0CEFC371CE6D100E0477064274FF60A
:20236000FE7600252079A0B1FF2812D0401E2071C0B270B96079032805D1608821880222B8
:202380001CF0DAFE6079012803D0268066806571A5717F1E04F10804E4D108F15A04082733
:2023A000207A401E2072C0B230B9C648214621F039FF90B9668025707F1E04F10A04EFD156
:2023C000C14AC82112F8080F08B1401E1070491EF8D10F9880F0100071E11FF08FF9E4E746
:2023E0004C460F992778890834D20F992289890A12D20F99C90A38BF0020C0F06081022856
:2024000001D11AF0D1FDBAF84800012119F0B2FD0F9880F4806052E1BAF8485004F10801C8
:202420005020AAF8482020F0DBF92689142744466089854205D0864204D0204623F039FEF9
:2024400000E066817F1E04F11C04F1D10F9880F4007034E16FB9BAF83E10012021F08AFAC3
:20246000687802280DD19AF8000001211DF0A6F907E001A824F07DFC24F03CFB01A91DF0F5
:202480007BFB0F9880F0020019E1C04650240020440200200846202120F022F828B9DAF847
:2024A0001000002808BF012616D024F049FE044624F00EFB4FF47A716043B0FBF1F1DAF81E
:2024C0001000002808BF002004D088428CBF4FF0FF30081A460865D00020042123F068FA27
:2024E000071C5FD0FF254FF0FF3B06244FF001093846042123F05CFA10903889864204D869
:20250000801B83B23B8113B149E000203881BB7B012B02D17889C0083BD3002B36D08DF8A7
:2025200004508DF805508DF806B03968086AC97F02AA11F043FD4FF00008012808BFC846A5
:202540005FEA08001DD0788A40F08000ADF83600B87B8DF838007889000908D3BDF83600F0
:2025600040F48070ADF83600387B8DF83A007B6913B1187BADF8180001A9002202A803F089
:202580006FFD7C73387B1AF001F808E087F80D9005E07C733868407BB7211FF0A9FB109FBD
:2025A000002FA5D10CF026FD9AF800300020012123F0FEF918B1184620211DF095FB002024
:2025C000042123F0F5F9B3B278B152460789147823F0EEF920BBBB42AEBF0027FF1ABFB2A3
:2025E00020464FB920211DF07FFB002012E0C046B85B0020200100207A00202124F0EDFB62
:2026000024F09EFD044624F063FA4FF47A716043B0FBF1F0CAF810000F9880F020004EE0BC
:202620000289BA42D8BF171CD2E724F010FC274C0546201D0068074698B157F80C1C9AF86E
:20264000000021B94FF400511CF012FD03E04FF400511DF049FB204639460022001D21F0F4
:202660000DFB284624F068FD2FB13846FEF77AFA384623F04DF80F9880F400501FE0084616
:202680001DF004FB071C17D0114920310A78FF2A0FD03C780B460020944207D0401CC0B24F
:2026A000C200D1189A5CFF2AF6D102E0496838468847384623F02CF80F9880F4004013B0D6
:2026C000BDE8F08F551E0200E4090020F44B0020EC8302002DE9F04F064693460020ADF14C
:2026E0003C0DABF80000B06A099303460078884624F05AF848B1708904461FF0B1FE02281F
:2027000004BFABF80040B36A01D0002009901878C84DDFF82493401E0A2800F20B84DFE861
:2027200010F02F03B3020C04A0028D0151010904BE00880066000B00BD4C207D012840F05D
:20274000F9835B1CB06913F8015B1F7824F039FB002800F0F7830379002B00F0F383032B5A
:2027600080F2F0830E2D1CDCDFB9D04907752DB901EB85010A6BC261096B0AE001EB850154
:202780000B6B9A01A2EB8302C2610A6B9101A1EB82018161012180F820101FF0E1FF00251D
:2027A00000E001250320B689E4788DF8190006A822F03EFF071C00F0C58338690C2100F899
:2027C000011B00F8015B04700124BC7723F0A6FC786204A9304622F007FC10B17C7704A896
:2027E00038627E80BC76384608F052FCAAE35C1C207820F01F0700F01F00012840F09A83F3
:20280000641C04A8214624F00CFB284604A95D3023F0BEFB002800F08D83002F40F08A8302
:202820000834A2786178207801EB022120F0A2FE88E3688F7189884240F07C835C1C14F839
:20284000016B04A8214624F0ECFA284604A95D3023F09EFB06F01F0726F01F06002800F03C
:202860007183002E40F06E83780018F091FB011C00F0688367B18446083438466378227800
:20288000401E04F1020402EB03222CF8022BF5D1009111F0B6FF08461FF042FE52E35C78C9
:2028A0009A1C34F07F0704F01F0E40F04B83377F03201EFB00F0801CC1B2B94240F04283B8
:2028C000002714F01F0F04BF4FF6FE7C614618D0D9789B7870464D4603EB012C5378117872
:2028E00012F802EF01EB03213EF0770340F02A832B888B4208BF0EF00707521C401EEDD16B
:20290000BFB960464FF6FE72824212D004F06002602A0ED04D462A88A30907D2E30902D2F6
:20292000904203DD0EE3904203DD0BE39142C0F20983B08924F019FA002836D1B0894FF636
:20294000FF7121F09FFF041C14D121F0E3F8041C00F0F88200211C221AF048F9B0894D4667
:202960000E35208028886081AA23A3740622227401216174207C0C2805DB0620072F2074AA
:20298000BCBF7F1CFFB2677400202073A01C23F08DF8002840F0D682307A002800F0D282C8
:2029A000B169A01C24F03DFACCE20021C171017A0C2905DB0621072F0172BCBF7F1CFFB2CE
:2029C0004772BFE2484671890088884240F0B282307F022840F0AE82AA4CA01D00884FF6A6
:2029E000FE71814240F0AE82162022F08AFD071C00F0A88201213970B07900280CBF081C2E
:202A000002207870B06A4078B872000902D2B08920F05CFBB169B81C24F003FA0020F874A8
:202A2000287839461EF00AFCB089E0808AE2C04678450020144100204E41002070891FF04F
:202A40000FFD002840F076825F78B94987B10C2F03F1020380F276828C463D465A781878B4
:202A60006D1E03F1020300EB02202CF8020BF5D1484675890488DFF8D892AC4200F0B28065
:202A8000B37C002B00F05E823B1C0A974FF0000811D0A74A38464146921E32F8023F9C42FD
:202AA00006D0401E01F10101F7D104E0B88702000A914FF00108284600211AF0E5FD00287B
:202AC0000B907ED0407901287BD10B98807910F0180F76D00B984188384623F03DFA10B9D9
:202AE000B8F1010F6DD109F55F794FF6FE704FF000080C97B6F80CB0CDF820904FF0010A43
:202B00000D90C14611E0B8F1010F08BF4FF0010908D024F0E6F8C0B290FBF8F101FB08F1B2
:202B2000A0EB01094FF00008C246089D14271C3D35F81C4F4FF6FE70A04213D0A34511D09F
:202B40000C98214623F008FA60B96B7C53B1072B08DA08F10100BAF1000F5FFA80F801D1E6
:202B6000C14521DD7F1EE3D1B34D332735F8244F0D98A0421AD0A34518D00C98214623F0A7
:202B8000EBF998B96B7A8BB1072B0FDA287901280CD002280AD008F10100BAF1000F5FFA0D
:202BA00080F803D1C14501DC0D9407E07F1EDDD1B8F1000F02D0B9F1000FA4D00D980B9913
:202BC0004880B37C5A4C581EB074F77C00970A9D0195029401220392B189B269708916F0D5
:202BE000CFFAAFE1B4890C2F80F2AC818846ADF81040BD488DF812700168CDF8148009B11A
:202C000004A8884720461DF0F9F8C82803D14FF6FE701DF0F3F8C82880F2948109EBC0003B
:202C200000F6CC05686808B11FF07AFC2FB1780018F0AEF9686010B984E1002068606C80EE
:202C4000C2486F70007828706878002800F07A816868002800F076817A00414623F09AFA01
:202C600070E1307F022840F06581099828B94D4671892888884240F06581099831460BF062
:202C800061F85EE1B0420020B5F8481040461FF003FBA846074608202FB17D781DB90621BD
:202CA000397007257D70B16A0A79CC788B794D7891F802A0CF7904EB02244A7902EB032943
:202CC0006A0928BF1020AA0924BF0830C0B235F0700340F03781327F904240F0338105F04E
:202CE0007005680938BF002006D306A8083124F098F825F010050820A90907D3B16A091859
:202D000004A8083124F08DF825F020052046514621F042FC08280DDA8D4B410001EBC001D2
:202D2000C9188879B84240F30D818F71002002E0440100200420B8F83A10A14219D048B9A4
:202D4000B189484601222B460FF0CCFB28B1F9E020010020042840F0F58006A804AE00909D
:202D600049463A46534601962046029512F0D4FEE8E0B189484601222B460FF0B3FBE1E0B1
:202D8000B5F8481040461FF087FA4FF00609041C03D06078002800F0CD80B06A81784778C8
:202DA0000891C378017900F1050A03EB0120099040461EF08FFA9AF8001009185FFA81FA69
:202DC000B80928BF4FF00E0937F0780040F0B28007F01800182800F0AD80307F814540F0E3
:202DE000A9804FF00009CDF800900899B089524643461AF0BDFC032800F09C80002807F0F9
:202E000078074DD117F0180F18D195F8310028B1B089414601223B460FF064FB09984FF6BF
:202E2000FE714A463B460FF05DFB002838D14FF6FF70ABF8000039E00810002047F00107A3
:202E4000780928BF47F00207B08939461AF01CFC90B1817911F0180F0ED0417901290BD1EF
:202E600054B14088B5F848101FF016FA20B1437813B1607898425DDCB089414601223B46C2
:202E80000FF030FB60B94FF6FF70347AABF80000002C0CBF4946B169B089524622F098FFD0
:202EA000BBF800104FF6FF70884243D1012000900899B089524643461AF05AFC0998394691
:202EC0001EF0AEFD698F81422ED1099823F04DFF60B10079012818BF022807D1099804A9A5
:202EE00022F082F808E0C0463C44002023F016F9014604A823F095FF307A012803D1B1693B
:202F000006A823F08EFF06A8009004AF0197B06A407840F0300002900999089BB0894A4608
:202F200012F0FAFD48460CE0B06A80F805A022F029F906E04FF00009F4E70999304611F091
:202F400069FE099009980FB0BDE8F08F924500207A0100202DE9F04FAA4C04F12C00076880
:202F6000ADF1540D17B1002087F84500DFF8908217F148060BD0B86DA04DAE6128B9404604
:202F80000068D0F84C058047AE697068A86023F05EFF1390082014F033FF1BF05DF8454696
:202FA00010B17FA024F0C4F81DF058FA0CA823F0C9FC042600200CA98DF8306023F0CAFC89
:202FC000206423F0E5FA04A823F024FC002004A98DF8106023F026FCA06323F0E3FA08A802
:202FE00023F028FC002008A98DF8206023F02AFCA16BE06319B972A024F09AF8E06B10B99E
:2030000074A024F095F8206C10B977A024F090F82868D0F8E00380472868D0F818028047B8
:203020002868D0F8F00280474046006807260025A03001686F5827B1384680474046006834
:20304000A030761E05F10405F3D1D0F8B8028047EB2023F067FDE06A002770B16846FF211E
:20306000082219F0C3FDE06A6946082222F040FB04F12C05012818BF2F68634805C8E8468A
:20308000391C88E805001ED1082017F081FF061C54D0B51E032723F024FE05F8020F7F1EA5
:2030A0004FEA20206870F6D13020F82705F8020F3146082204F14800F77123F06BF8304649
:2030C0001FF02EFA04E004F14800082223F062F8012008216A4623F0CDFD04F148050028C0
:2030E00018BF092826D121F0F1FF80081DD26846FF21082219F07AFD02AEFF210822304671
:2031000019F074FD012000210822334623F008FB80B930466946082222F0EAFA28B928466D
:203120003146082223F036F804E0012008212A4623F0A6FDE22029461FF052FB21F0C6FFB6
:20314000400834BF00260126304D5520012105F1320223F08FFD18B916B1002020F0BAFF89
:203160002B4DE22005F13C0121F04EFE30461CF075FC68460021102219F038FD687830F013
:2031800001004CD1234F69461022384622F0B0FA002841D168463946102222F0FBFF3EE0C1
:2031A00052616E646F6D5F736565644175746F6D617469632829206661696C656400C0462B
:2031C00041455343434D206F70656E206661696C656400C0414553454342206F70656E2097
:2031E0006661696C656400C054524E47206F70656E206661696C656400C046C0604400208E
:203200001401002058170020B08A0200F046002078450020C8870200684620F02BFF6220C0
:2032200010216A4623F026FD28B926B1622010216A4623F025FD68460021102219F0D6FC4B
:20324000304613F053FB30461FF06EFE304613F02DFE6878A8B9684620F00CFF40F20110C5
:2032600010216A4623F006FD30B92EB140F2011010216A4623F004FD68460021102219F04D
:20328000B5FC1EB10020012120F000FA282017F07FFE0028606400F04181206B616B221D62
:2032A0001BF0B4FBD149087010211CF01DFD616C201D0860206B616B04F108021BF0A6FBF7
:2032C000C9490968D1F84C138847616C04F108004860206B616B04F10C021BF097FB0EF00D
:2032E00075FB616C04F1300704F10C0004F1340888603868D8F8001004F110094A461BF022
:2033000085FBBB4E002170706A8EB170301D05F14C0100F1300B028006F1340023F081FD10
:2033200005F1440395F82300F3606A783070022A11D1287801280ED1DFF8B8A200214FF480
:20334000B472504619F052FC4FF6FE703C235B1E2AF8060BFBD1606CC0F80C90D8F80010D0
:20336000386804F114021BF051FBA349A34A0870A34BB260606C736204F11802A14BD8F88E
:203380000010B36204F114030361386812921BF03DFBDFF8749289F80700022289F82420C3
:2033A0004FF6FE70A9F81C0022F0B8FE97484FF0000AC0F800A0B248594623F032FD94489E
:2033C000FF210E2219F012FC9248944B8360944AC26091494160934B0361934A42619549CF
:2033E0003161924B8361924AC26153460370924A7261924B924AB3619348924BF26194490B
:203400001861924ED96009F130009E601EF0DEFE1EF076FE9A4809262C30761E40F804AB9E
:20342000FBD14E46F07948F201011DF00BFDF0794FF400411DF006FDF07948F221011DF0A3
:2034400001FDF07948F222011DF0FCFCF07920211DF0F8FCF07921211DF0F4FCF0792221A4
:203460001DF0F0FC616C129848613868D8F8001004F11C021BF0CAFA764E48F2150130701D
:203480001DF0E0FC307838211DF0DCFC734B744AF36071483261616C706102234FF6FE72CA
:2034A000386886F8283004F11C038B61D8F80010328404F120021BF0A9FA6A4904F1200370
:2034C000694A0870694E606CD8F80010C3613868166004F1240632461BF098FA69496B785B
:2034E000087023B991F833300BB10221E97148F202011DF0A7FC606CD8F8001006623868B2
:2035000004F128021BF082FA20705949087023F0EBFA4870616C04F1280048621BF038FFD5
:203520000FF066FF139823F007FE22F0CFFC21F0BBFC2D480068D0F8D40090F8430017F074
:20354000F5F829480068D0F8582400210120904721F082FC00214748234F01707868C0681E
:20356000007828B938460068D0F858240846904718F09EF94048414A0721002321F0F4FBA6
:2035800018F0E8FA1FF00CFD10200DF142018DF842005A201FF024F94FF4FA7010A9ADF840
:2035A000400055201FF01CF903200DF143018DF8430059201FF014F914208DF844003868D3
:2035C000D0F8302411A9E02090476878022807D12878012804D14FF4004001210DF00EFA14
:2035E00015B0BDE8F08FC04614010020E75B00202C47002034030020904B0020312D010001
:20360000A98D010055680200FC430020D845002022010020DC490020ADD700005147020072
:20362000EDE50100FB360200A14C02009D1E0200C94C0200F9740100ED5001003D51020085
:20364000DDB20000084B0020F94F010085C10100ED440100684700200D3302004946020004
:20366000B94D0200DC4B0020E84B0020A1260200CC4B0020EF5B002014490020CB6E020086
:2036800010440020F04600202DE9F04FADF13C0DC54C0B90C3480C91002147780E919FB101
:2036A00037F0010608D0022F12D1207900F0F80141F00201204605E02046017901F0F80125
:2036C00041F00101017103E0207900F0F8002071261D3078402537F00102657100F0070009
:2036E000307005D18E20A0716FB940F0010009E0022F08D1AB4980200978A071012902D126
:2037000040F00800A0710E99F170317150256572A020B071F171B072F172A089099140F4AB
:203720003050A0812174BAB1022F1CD101201AF0C9FF28B9206820F00F0040F0020004E039
:20374000206820F00F0040F001006FF30F1048F220210143216006E021684CF210106FF3A1
:203760000F0108432060924B9049A0791F780A9381F8320067B90E981CF070F98B4890F82A
:203780003200000911D30E9808A98DF8200009E0084690F83200000907D301200DF12101F9
:2037A0008DF8210052201FF01BF81BF0F1FD21F08DFC800838BF0E9803D30E9820F08AFC05
:2037C00001200028DFF814A30D9040F0D8800FF0EFF85FEA000B40F0C380744ADDF83880F5
:2037E000212074212432174623F044FA002859D12120414674223B4622F092FF002851D1D1
:203800006A48408F4FF6FE7181424BD0674890F84A004FF00108082806D0042804D011F0C5
:20382000BBFEDDF838803DE0C14642200DF122018DF822901EF0D4FF07F12F0143201EF0EA
:20384000CFFF07F12C0147201EF0CAFF07F11C014A201EF0C5FF07F11A014B201EF0C0FF9B
:2038600007F1240128461EF0BBFF07F1160153201EF0B6FF07F12D0154201EF0B1FF07F160
:203880001801E1201EF0ACFF484890F83200000938BFDDF8389052200DF122018DF82290A4
:2038A0001EF09EFF0E9D17E0DAF804100E9AA80000EBC5000C234018814600902946012067
:2038C0001FF022FC30B999F80000FF2804BF099889F800006D1CADB23248BAF80010407859
:2038E000A942E1DC30F0010001D111F013FAA048001D006800B180471DF01CFEB8F1000F5B
:203900001BD023F009F90A99888318B9307800F0F800307023484078022818BF012104D1DD
:20392000224A0998032182F84A000A98393741703946143023F075FA01E04FF0090B8B4D7E
:203940000999184FA81C0180787818B91EF0FAFB38464078BBF1000FA94605D10E9904E014
:203960001048DFF80892407801210D910F490A9D91F83C20012707FA02F1E9609CE00FF042
:2039800017F811F009FE094A21207421243223F077F902A8FF210C2219F028F90E9D5746A4
:2039A00010E0C04678450020D85A002014410020FC430020294601200C2202AB20F0C4F8D7
:2039C0006D1CADB23888A842F4DCC148407830F001000ED102A8FF21102219F007F90E9D14
:2039E00003202946102202AB20F0AEF86D1C332DF6DB5F48006800B180470998ADF8080011
:203A0000162017F0C5FA071C10D0FF21162219F0EDF8384602A9022222F0BCFB42201621B2
:203A20003A4623F02DF938461EF07AFD09980E990622ADF8100002A819F0D8F8142017F0E7
:203A4000A7FA5FEA00081BD0A4480C300768A7B103270225A8B202A90622404422F09AFBF1
:203A6000AD1D7F1EF6D104A94046022222F092FB4C201421424623F003F940461EF050FD09
:203A8000182017F085FA071C10D00E9D1822294619F0ACF80620294618223B4620F054F8B8
:203AA0006D1C032DF6DB38461EF03AFD1EF024F88748DFF8B89040780D99884D012967D10C
:203AC000B44F2437F0B101280AD002280ED1307800F0F80040F0020007E0C046EC4B0020D5
:203AE000307800F0F80040F001003070A24821F04CFD002808BF099809D00A9A04210320CC
:203B0000917204E03178022001F0F8013170DDF8288088F8010023F0E4F80B996C4E00F02D
:203B20007F000818643080B20E90B06B0221C8F80C00FF201FF0AAFD96494FF6FE70431CB2
:203B400048870E46F0870998A1F848301FF05CFE5F484078012810D10C9801280AD00999FE
:203B600002A8082219F042F802A804E01C4B0020F049002009981EF013FE212074213A46AA
:203B800023F07EF8099802211FF080FD50484078DDF834A018B9A08940F00100A081EF68B0
:203BA00087B9122017F0F4F90646002EEE606ED04FF6FE70B61F0327411C26F8060F7F1EBA
:203BC0007180FAD1BAF1000F61D1099906AB4C20022222F0A5FD002852D1BDF81800002866
:203BE0004ED004284CDA182017F0D2F903274FF002084FF6FE7B0646099CEB681FFA88F144
:203C00004C2006221B1922F08BFD78BBE868015B8B452BD056B300962018099A418818231A
:203C200006201FF071FA3069EA6800F2E93333611019418805F11002880000EBC100E968D8
:203C40001350081973694188880000EBC1008018E9684360081941881822334606201FF0A9
:203C600073FF09993046182218F0C0FF7F1E04F1060408F10608C0D116B130461EF050FCEE
:203C8000134B099971200822443322F049FD10484778381C06D122F041FA22F0EBFD0C48BD
:203CA000477817B122F0DEFD18B10120A870099EEE703248324EC9F80C00C9F810607FB161
:203CC00037F0010006D120F073FF2F480BE0C0467845002020F06CFF2C4804E050240020B7
:203CE00020F066FF2A482749BAF1000F086019D0284890F86500A8B92748407890B9DDF85F
:203D00002480622102AA404619F0E0FD02A8414620F0A5FB404615F025FB02A81022414675
:203D200018F064FF0A98006950B10A9C1034076820681EF0F5FB0A99384600280861F6D1B4
:203D40000A9A099F01200146107002F1090457728520093222F08EFF28B9852039460122BF
:203D6000234622F0DDFC0E9822F016F821F01CFA50460FB0BDE8F08F604700205100010070
:203D80002569020084490020918101008F5A02004D8E010014410020784500202DE9F04F25
:203DA0000446B14DB1480021ADF14C0D001D2E680768A0780C910146102910DC102900F03E
:203DC000AC80002900F0A682491E012940F2F581891E00F04D81491E00F01C813CE311397B
:203DE00066D0491E1ED0491E03D0491E00F03A8332E3207967798DF81000E0788DF8117069
:203E000022F002F8002808BF022005D00C3004A9022222F0BFF90C988DF82000132108ABA9
:203E2000012233E3204634460421C61C304621F04CFE0C9F0121002C35D0A268904203D0E4
:203E40002468002CF9D12EE06CB3361D304622F08DFEB778804657B92868844218BF251CDA
:203E60002068286020461EF05BFB0C991BE0B81C17F08EF8051C04BF10210C9F13D00C9820
:203E800028706F7061683A46A81C414422F082F9BE1C642012212B46F2B21EF055FF284616
:203EA0001EF03EFBF5E23170334612217770ECE220460126C41C8DF82160204622F056FEA3
:203EC0006F68A3780FB3B3B938680090686818300190787E0290B87E03903969BA8AFB8A2D
:203EE000381D08F07DFD8DF8210068681EF018FB0C9868600CE03968E41C1A46091808469C
:203F0000214622F047F90C9800E010208DF82100112132460DF12103B8E22546B94C8946E9
:203F20002D1DA07815F8011C002936D0491E10D0491E02D0481E5FD05CE0287822F01AFDAC
:203F4000002861D041680978E170007820710C984CE02D78002857D1E1200DF1230120F08C
:203F600053FF9DF82300854242D00126A670304622F0CCFB0C9809A98DF8240052201EF053
:203F80002FFC28461DF070FD90B3657020783146642222F022FFBA2028E0002834D1E1201E
:203FA0000DF1250120F030FFCB4E9DF825103C36307888421CD0DDF8308001255220A570B9
:203FC0000DF126018DF826801EF00AFCE12031461EF006FC52200DF126018DF826501EF055
:203FE000FFFB404622F092FB4046A07002460CE00C9A0AE00220F9E7284622F0B7FD0C9A6C
:20400000A97822F082FE00B901228DF822200DF122031FE210218DF82710E1788046DFB18A
:204020007A681278384691420ED03F683FB17A681278914205D038463F68002FF7D10220FC
:204040000BE03968016002E0B1493868486038461EF066FA0C9800E001208DF827000DF114
:204060002703CDF83480A5E0044C0020D44B002001218DF828100C990D900C2204A818F066
:20408000B5FD25460224ED1C8DF81840284622F06DFDAF1CADF8100017F8010B8DF81900D4
:2040A00017F8010B22F066FC8146384622F05EFDBD1C0E9015F8010B15F801AB15F8018BDD
:2040C0002E788DF82900700016F062FF0F9000286CD06D1C4EB183463746284622F046FD21
:2040E000AD1C7F1E2BF8020BF7D1B9F1000F57D0CDF8409015F8013BDDF83C903746AB4695
:204100000C2FBDF8105011934ADA28461BF076FEC82815D14FF6FE701BF070FEC8280FD1C8
:20412000C34890F8CC38012100F6D40C0C981CF8082B9342C4BF131C081C491CC829F6DB33
:20414000C74C4FF6FE7604EBC0046068668018B11EF0E6F90C9860606FB17E00304616F0FE
:2041600017FF6060002808BF102419D060684946324622F00FF8C9486580007867700DF132
:20418000290620701099CDF800B00E9A0196119BCDF808A004A8CDF80C8008F021FC04468E
:2041A0000F988DF828401EF0BBF902E010208DF828000AAB0D9881464CE194F801B001213D
:2041C0000228814604F103048DF82B101CD114F8010B03288DF8180005D0204622F0C6FC56
:2041E000ADF8100004E004A82146082221F0D2FF083414F8010B8DF81900204622F0B6FCEB
:20420000A41C0FE0DC4B002002208DF81800204622F0ACFCA41CADF8100014F8010B8DF8B7
:2042200019000C98ADF81A0014F8010B22F0A2FB8046204622F09AFCA41C0D90B9F1020F4F
:2042400014F8010B14F801AB14F8017B8DF82A001CBF14F8016B06F10A0006D1204622F0B4
:2042600085FCA41C064606F11400B8F1000F80B242D0FA2832DD6C68002C3DD106F11C0058
:2042800016F086FE04466C6024B30C9804F11C0504A98DF82B000C222560201D21F07AFF16
:2042A000C4F810800D98A082E6829DF82A50257684F819A0A7760F23E376794C2078082176
:2042C0004FF47A7222F089FDC8B1207808211BF00BFD14E0102010E01441002000940DF1AF
:2042E0002A000D9A019041463346CDF808A004A8039708F075FB00E002208DF82B002BF074
:204300001F0BBBF1200F40F0C4800DF12B03A1E0D44B00204FF0100A89468DF82CA0504629
:2043200016F036FE071C00F094805D48E41C7860207822F01FFB00287CD120780C9E38707C
:20434000B04687F80C80142016F022FE0028B8606BD014F8011B017062782178A61C01EBCD
:204360000221418031787278B41C01EB02218180817914F8022B01F0F00102F00F020A4381
:204380008271B96814F8010BC871BD68EB79464673B1580016F0FCFDA860B8688568002DE6
:2043A00008BF564604D03046BA68D179814231DC2078B9680873BD682B7B73B1580016F093
:2043C000E7FD2861BD682B69002B08BF564606D0641C4046297B814210DC102E2BD1A868B0
:2043E00010B11EF09DF8BD68287B18B128691EF097F8BD6828461EF093F81CE062782178FF
:204400002B6901EB022123F81010BD68A41C421CD0B2DFE7637821789268451CA41C01EBB8
:20442000032122F81010E8B2BEE7564603E0C04620010020B8268DF82C603EB938461DF0A8
:20444000C5FE8DF82C009DF82C0010B138461EF067F80BAB4946E3E402200C9019E0C046B2
:20446000EC0900200C988DF810008DF81100E07804A921F068F89DF8117014219DF81000F2
:204480008DF81D7007AB8DF81C00022264201EF05BFC0C9813B0BDE8F08FC0469245002022
:2044A000E75B00202DE9F04FDFF8BCB2DBF80000D0F8D41091F883A0B8300168DFF8AC827F
:2044C0000F78ADF1240D2FB941460F7817B1D0F8940480471FF004FB81274646A4493770CB
:2044E000BAF1020F086002D1A249FF200870A24C0020A249A08106460891BAF1010F0791F1
:2045000027780E702069A7701AD0007ADBF80060801E85B2D6F80001C089A842C0F201833A
:20452000216A0831096804F118000422016004F11901A67EE37E607E06914978A2812DE0B8
:20454000467A007A06F0070100EB01218DB2710938BF281F04D306F0070100EB0120801EA0
:2045600036F07F0685B240F0DC82DBF80000D0F80001C089A842C0F2D482216A04F118005C
:2045800008310A68097902600522017104F11901A281237F0691E67EA07E897800EB0620F4
:2045A0006081C1F301182371DBF8001001F1B80CDCF800100978ED1EADB2002908BFB8F1B8
:2045C000020F00F0AE82B8F1020F00F3AA8219B110F0070F00F0A582667800F007039B1E49
:2045E000022B08BF002E00F09C82DFF8A49231B149460978862902D1002B40F09282001388
:2046000000F0020002284BDA334341D1DCF81C0090F88300022838D0216A891808310978BE
:2046200005A8521C017097B2A78122F010FC054649460878862825D1DBF8000040300168B5
:204640000A6832B9D0F80C058047DBF80000006C02689DF9140022F034FC5077DBF800002E
:20466000016C096800228A77006C9DF914100068C177284622F060FD608900F010001CF0A1
:204680009FFA02E0284622F057FD21F073FC4AE249460878862803D11EF0FCFEA778667889
:2046A0008FB186B9012F00F03C826089022F03D110F0070F40F03582032F05D100F00701B2
:2046C000032901D02DE26089010980F02A82011301F00201022902DA810A80F02282BAF166
:2046E000010F19BF0699497806998978C1F381098E11B9F1010F00F01482012E00F0118203
:20470000B8F1020F13DA00F00701012918BF03290DD1B9F1000F0AD1002E00F0028259461A
:204720000968AC3109680F78002F00F0FA81B149B8F1020F09D08A5D11F809108918CFB2E1
:2047400016B3C10920D3BF1E0BE072184944127909798918CFB2C10912D259EA060313D0E8
:20476000BF1CFFB210E0C04614010020EE5B0020D05B0020E52D002024590020F05B002094
:2047800059EA060308BF0227C0F30020391A60718D42C0F2C681DBF80030ED1B2918218130
:2047A000D3F850122D187435A8B2884700286578606100F0B6810021742218F017FA0020D8
:2047C000E07061894FF0FF081DB9079A01F020001070079805784FF0000C002D40D06579CF
:2047E000002D3DD101F00700032809D0012837D1DBF80000D0F8D40090F88250002D2FD05C
:20480000BAF1010F18D0DBF80400406905781DB121F0DCFEFE280CD0DBF80000D0F84C0254
:204820008047C8B9DBF80000D0F84402804778B112E00420E07012E0DBF80000D0F84C021E
:20484000804748B9DBF80000D0F84402804718B9618994F803C003E00420E07061898446D3
:204860006569238905F1740205F17400AA65BAF1010F6860B24A2B812089A9811378A5F8B3
:204880005C0007D0069A5078C0F30111107806E0F35B0020069A9078C0F30111507800F0B7
:2048A000780008434CEA00002874002B85F80E800CBF2079002085F8306085F83A9085F8D8
:2048C0004900A089002FA0EB030086B2A68100F02581DBF80000E780D0F8D400216A90F8CB
:2048E00083903A4689190831684615F089F9BF19B8B2B9F1010FA08107BF069880780698FE
:204900004078C0F301182846077CB9F1010F07F0400A07BF06998978069949786D46C1F3FA
:204920008106002E42D0B8F1020F4FF0000302D1BAF1000F0BD19DF801209DF8001001EB04
:204940000221A0F844100DF10205A0F842107D4FB0F84410B7F85A208A4203D04FF6FF7213
:204960008A4220D1032E11D06A78297801EB022189B24186B7F85820AD1C01208A4211D016
:204980004FF6FF728A4218BF181C0BE060692946323022F046FA60694F373946323021F072
:2049A000F7FA08350346002B00F0B580B9F1010F07BF0698807806984078871121D0616971
:2049C000B8F1020F03D0087CC00903D309E05AEA060306D16A782878AD1C00EB0220A1F829
:2049E0004200032F08D068782A7802EB00220A8507E0C046048F020060692946283022F027
:204A000010FA59460968AC310A686089177887B1B8F1020F0DDA00F00702012A18BF032AB4
:204A20000BD162692EB9484BB2F842201B88934271D100F00702032A05D0012A14D1886A92
:204A400090F8820080B1D1F89C116069884758B90020069FE070B97866697878C1F3011131
:204A600000F0780008433074B9F1010F56D1DBF80020B8321068007810B1B8F1020F4DDA8F
:204A800008980078002849D06079002846D1D1692079E778DFF8B490DFF8B48091F8831031
:204AA000012912D0494600250223CD708A1C137017B143F01003137003219070404680F8F8
:204AC000731042671BF07AFD28E0D2F8702305460DF11501E92090479DF81560052336B963
:204AE0004946072201F10C000270082204E0494601F10C00037018224A7302210022817053
:204B0000C27017B141F010018170A8F80431C8F810010571D6E71AF0B1F804E004F03EF8CE
:204B200001E021F087FC22F092F9216A0A68002313710968216222F0FFFA09B0BDE8F08FE3
:204B40002959002060440020BA440020E04A0020A83900202DE9F04F0446B54EA578F06A6D
:204B60004FF0000BADF14C0D2946312911DC312900F0E280DFF8C882B24F142914D91C39F1
:204B800000F06281491E00F01B81133900F0E9807FE2323900F0BA80491E69D0491E012983
:204BA00029D9891E17D074E2DFE811F06402A502A102500299027302730224024E010A0140
:204BC0000D02F8018F0273028902DE0173027302C901B801760240B1C06830B1E01C21F071
:204BE000C5FFF16AC968884700E003208DF8380036210EAB61E201270028A8468DF8397017
:204C00002ED0406A60B3204602A920F001FD342D044618BF584602D121F0A8FFA41C2578B2
:204C2000E0B902A821F0B7FD641C01280DD1BDF80C00294622461FF0D5FEBDF80C00012881
:204C400003D1E22021461DF0CBFDF06A466A02AB93E803002A462346B04702E0042000E057
:204C600003208DF8390041460DF139033D46A5E0002840D0C06900283DD0204602A920F0D3
:204C8000C7FC054602A821F086FD012818BF584603D1BDF80C0021F0A3FC0446284621F01C
:204CA00065FFAD788046F82DA8BFF725A81C5FFA80F9484616F06CF9071C1AD0A4B9F06AAA
:204CC000BE1C02ABC469009693E8030042462B46A047041C08D1584638704A4633213B4688
:204CE0007D7061201EF030F838461DF019FC1CB90DE2102400E0032408A85946022217F0F7
:204D000075FF8DF82040332108ABFCE168B1806A58B104A9204620F07BFCF06A826A04AFB7
:204D200097E803009047014600E0594602A821F025FA32210422D8E160B1806950B12046E7
:204D400002A920F065FCF06A826902AF97E80300904700E003208DF83A0031210DF13A0399
:204D6000ABE101258DF83B5010B3006900B3204602A920F04DFC042120F0A7FE5FEA0008FD
:204D800014D016F005F9F46A071C14D05946424617F02CFF246902A803C842463B46A0477B
:204DA0008DF83B0038461DF0BBFB04E0052000E003208DF83B0030210DF13B032A46A3E1A5
:204DC000E41C8DF83CB0204621F0D0FEA846092D064609D0A01C21F0C9FE0746201D21F0A5
:204DE000C5FEA41D054602E0A778E578241D242E03D12088352606AC069030461FF06EFDE4
:204E00007919884216DB27B93046294622461FF0E9FD30462946224621F032FF30B9012E7C
:204E20000BD1E22021461DF0DBFC04E00A2002E05817002002208DF83C0041460FAB3CE189
:204E4000E75B0020448F02002646F61C304621F08DFEA9468046B8F1240F46D021F0C0FB18
:204E60000446082D08BFB67803D0B01C21F07EFE064640461FF032FD86422BDA5CBB801B03
:204E800085B2F82DA8BFF725A81C5FFA80FA504616F07EF8071C1BD0B81C59462A4617F092
:204EA000A5FEBB1C404631462A4621F039FC48B958463870524649463B467D7061201DF05B
:204EC00043FF00E00A2438461DF02AFB1CB91EE1102400E002240AA85946022217F086FEC4
:204EE0008DF8284049460AAB0DE135205946042207AB21F015FC38B9BDF81C205846022102
:204F00000425ADF8262002E00120594602258DF824008DF8251009AB08214FE7E01C21F031
:204F200025FE242802D01FF0D9FC00E058468DF82C00001213210BAB8DF82D00E3E0E01CB0
:204F400021F014FE0546601D21F010FE0146242D03D0284621F0F7FE00E058468DF83F0026
:204F600012210DF13F03A8E0E078211D70B1401E0AD10878012805D020B1522010A91FF0BD
:204F800043FF08E0522002E0022002E0E0201DF027FC8DF840000F2110AB8EE04146012594
:204FA000087814F8031F8DF842500429A8BF022003DA37F811101AF001FC8DF842000B214F
:204FC0000DF14203FAE6E41C20780428A8BF02200ADA601C21F0CAFD26784146024608783C
:204FE00037F8161021F0F9FE8DF843000A210DF1430362E0E01C21F0B9FD0646601D21F03E
:20500000B5FDE779E51C0146242E19D0B94205F1050510DD30465A4621F02CFE8DF84400F9
:205020009DF8440009280ED16FB1304639462A4621F026FE07E030462A4621F01BFE00E0F6
:2050400058468DF84400072111AB36E00127E41CE2208DF8457021461DF0C2FB30B93846F3
:205060000821224621F00CFE8DF8450003210DF14503FBE5E078284C30B1401E47D121F03C
:2050800057FD01202060FEE721F052FD01202060FEE74FF0020B3AE094F903001F4F8DF867
:2050A0003D003868D0F830240DF13D01E020904714210DF13E038DF83E00012224E08DF801
:2050C00041B00E210DF14103F7E721F00AFE8DF830000C210CAB00128DF8310013E0E22021
:2050E00002A91FF091FE0421082202AB0CE00C4B02210A2208E05920062701218DF8340070
:205100000DAB8DF83570022261201DF01DFE584613B0BDE8F08FC0467C052043140100203C
:20512000F08E02002DE9F0430646D448B57800780024ADF1440D294640292ADC402900F04F
:20514000E781202914DC202900F018820A2945D9103900F04082491E00F03482C91E00F0AB
:205160002382491E00F01782481E00F00C826FE1B1F1210000F0FC81401E00F0F381401E16
:2051800000F0E681401E00F0DD81401E00F0D2815EE14A2911DC4A2900F09881413900F0E6
:2051A000AC81C91E00F0A581491E30D0C91E00F09581491E00F08E814AE1B1F14B0000F003
:2051C0007281801E00F06B81163800F05981401E00F045817C3800F03D8139E1091E00F0A3
:2051E000DA80491E7CD0491E00F03E82491E00F02982491E00F01582491E00F00582491E56
:205200004CD0C91E00F0F081491E1CD020E1304606A9C01C20F0D8FE8DF81E0048B99DF8B6
:205220001800BDF818708DF81F0038128DF8200005E00DF11F00FF21022217F0D7FC032241
:205240000DF11E0323E23046C01CD64940788DF83640F0B92046D94E0870306820F02FF988
:20526000D74F386820F02BF930681DF031FD38681DF02EFDDA4E306820F021F9D94F3868D7
:2052800020F01DF930681DF023FD38681DF020FD01E0012008700DF13603F7E130468DF8D5
:2052A0003740C61C304621F061FCB778C0F304213FB9052903D04FF6FF7181420BD12046F7
:2052C00007E0052903D04FF6FF71814203D14FF0FF30DB4908600DF1370329460122D7E11E
:2052E000202015F055FE061C00F0D581FF21202217F07CFC731C01202146082221F010FA71
:20530000751C071C18BF01272146042205AB842021F006FA083560B99DF8170028709DF8B9
:20532000160068709DF81500A8709DF81400E87001E047F0020783202146022207AB21F0AA
:20534000EFF92D1D38B99DF81C002870BDF81C000012687001E047F00407ED1C6120214612
:2053600001226B1E21F0DCF908B147F008072146102262202B4621F0D3F908B147F010072C
:20538000012120223346672037701DF0DDFC30461DF0C6F87FE1264630F001008DF83C60CD
:2053A0000AD10FA819F09CFD9DF83C1080460E2000EB4100C7B201E0A0460E27384615F0C0
:2053C000E7FD5FEA00093DD0054621460822012005F8016B2B4621F0A3F921F09DFB083520
:2053E000072305F8010B001205F8010BAC4A05F8013B1078AB4905F8010B4B7833F00103C1
:2054000016D19DF83C0028709DF83C308BB141466D1C20469DF83C2082420ADD0A782A70D1
:2054200031F8022B401CC0B212126A70AD1CF1E72E70672021463A464B461DF085FC4846F0
:205440001DF06EF8B8F1000F00F0258146469EE7022420E122464720E021134619E13046BA
:20546000C11C4A7A087A00EB02208A7A8DF82E400FF0CEFC0DF12E0308E1C0467945002040
:2054800030468DF82F400822C01C0146684620F081FE68461AF032FF0DF12F03F6E03046B3
:2054A00010F0C6FAF7E0F11C6846082220F072FE8DF80840CDF80CD002208DF8090002A828
:2054C00016F0A2FE0CAB8DF83000DFE030461DF059FCE0E030461FF0D3FDDCE0F61C307898
:2054E00071781FF0B5FB02223070001270703346CDE0304613F096FECDE0F01C21F036FB20
:20550000ADF80200684617F0ABFB01AE0822EEE7F11C01A8082220F03DFE684619F0A6F95A
:20552000BDF802000DF122038DF8220000128DF8230015E0F5208DF827400DF126038DF88E
:2055400026000DE0F5200DF131038DF83100C4E6F520FF278DF82A000DF12A038DF82B705C
:20556000022294E0F5200DF132038DF832008DE0F5200DF133038DF8330087E0F5200DABF2
:205580008DF8340082E068462146092217F02EFB1621092236E068462146062217F026FBA3
:2055A000152107E02849002068462146062217F01DFB14210622684610E0C0462C4900204B
:2055C00030490020F0781DF037FC11210DF135038DF8350082E63278F01C1021034657E099
:2055E000344900203849002021F0AAFD054621F06FFA2D496843B0FBF1F1684620F0BEFDC9
:20560000092104226B4643E062201FF067F9F61C01463246622021F033FB0EAB8DF838006D
:2056200034E061201FF05AF9F61C01463246612021F026FB0DF139038DF8390026E0C046EB
:20564000A04B0020F01C042120F03FFA049084201FF044F9014604AA842021F011FB0DF18D
:205660003A038DF83A0011E0F01C21F07FFAADF81A0083201FF032F901460DF11A02832007
:2056800021F0FEFA0DF13B038DF83B000122294667201DF059FB204611B0BDE8F083C04646
:2056A000FC4300207845002040420F002DE9F04FCF48D04CDFF840830F46390CADF1240D92
:2056C00080F06582790927D300230370D7494370184621F07BFAD649012021F077FAD549CA
:2056E000062021F073FAD449072021F06FFAD849082021F06BFA0522D6498DF80C300DF184
:205700000D0020F047FD41208021062203AB1DF01BFB87F0100044E2B80828BF87F0020060
:2057200080F03F822068390931D217F4706F08BF002000F03682380B04D3002020F05AFF4F
:2057400087F40067F80A04D3012020F053FF87F48067B80A04D3022020F04CFF87F40077A1
:20576000780A04D3032020F045FF87F48077384617E22168884205D0016829601CF0D0FE7C
:20578000286804E0016821601CF0CAFE206808BB606858B1C27EC17E521E491ED6B2C176A6
:2057A00026B960681CF0BCFE002060602668002E08BF00280BD04446207808214FF47A729C
:2057C00021F00BFB18B1207808211AF08DFA87F00800E6E1017B491E0173C9B20029C8D0BE
:2057E00005460068D3E70546D9F8046028781A280EDC1A2854D0401E00F06C81401E00F001
:205800002B81801E00F0B581801E00F01781BBE1243800F0A881AD3800F09E81801E03D07C
:205820002A3800F08B81AFE1A87C0930C0B2804615F0AEFB061C00F0A781A97800F8011BC8
:205840006988091200F8011B99F80C1000F8011B99F80E1000F8011BB9F80E10091200F8C2
:20586000011B99F8101000F8011B99F8111000F8011B99F8141000F8011BB9F814100912C8
:2058800000F8011BAA7CA96920F084FC4520FF21424633461DF058FA30461CF041FE73E132
:2058A000B5F824A0E97B0AF114001FFA80F821F02CFA002640B9A87B032805D0B8F1F00F52
:2058C000D8BF4FF0810B16DD08F10A004FF0820B1FFA80F8B8F1FA0F0DDD0AF1100015F067
:2058E00057FB061C00F0508106F11000A8EB0A0470601FFA84F8404615F04AFB079020B926
:20590000002E00F041813046A0E00446A87804F8010B6888001204F8010B287904F8010B8C
:20592000A888BBF1820F4FEA202004F8010B1AD1A87B04F8010BA87B032805D0A87920708F
:20594000E8880012607004E0A91D2046082220F021FCE87B083404F8010B287C04F8010B3B
:20596000288A001207E0A87904F8010BE888001204F8010BE87B04F8010B287D04F8010BB1
:20598000687D04F8010BA87D04F8010B687E04F8010BE969204620F0F1FB241DBBF1820FCD
:2059A00004D0002004F8010B504606E0002004F8010B04F801AB4FEA2A2004F8010B0E48BE
:2059C0000078DEB10B4909680A4B31604FF47A721E6008210F23337321F0FFF920B106483F
:2059E000007808211AF080F9E869B060706807E01C450020044C0020E75B00202046544412
:205A0000A96A524620F0C6FB95F82C0004F8010BA88D5FFA88F85946001204F8010B95F8F5
:205A20002E00079E2070442032E7C04645EF01004B3C0200E1230200353E0200A878401DCA
:205A4000C0B215F0A5FA002800F09E80064623E781310200F08E020029790B2000EB410077
:205A6000C0B21FF04EFD002800F08E80A9782E798DF80010EC788DF802608DF801400DF1C8
:205A80000301FEB1AA792C79EE880A70022C4FEA26218DF804100DF1050113DB2A7A2C7919
:205AA0002E890A70032C4FEA26218DF806100DF1070107D1AA7A6E890A7031128DF8081018
:205AC0000DF109012A7BAE890A7032124A701FF01FFE59E0002E57D070788DF81500B07806
:205AE0008DF816003078FA2819DC9DF8150000F01E00162811DA2C499DF815000D4600F009
:205B00001F00820050194068091D30B18958304688478DF8140028B9BEE6012000E0042063
:205B20008DF814009DF8150020F01F0020287FF4B3AE60200021032205ABABE66878AE78CA
:205B4000EC788DF8180006AB8DF8196003228DF81A404420802103E06B1C4520C0210122B9
:205B60001DF0F2F810E0F0783346401DC2B26920F0E7F078401DC4B2A11E701CC9B220F01B
:205B800041FCA41904F8010C48461FF0C1FD074800781AF07BF85FEA00097FF424AE87F451
:205BA000004009B0BDE8F08F1C450020E75B00202DE9FC47D44C0F460546F80B80F00682D1
:205BC0006078DFF85883B90F80F0AA81B90880F09D81F90A80F00281390B80F0CC80380952
:205BE00007D2F80FC0F0288227F0804718F05CFC22E221F02CF981461FF0DAFD002800F02E
:205C0000B480082020F0D6FF002840F0AE80802020F0D0FF002840F0A880684614F024F9EF
:205C2000012803D10098002800F09F8094F83102002840F09A8000250126E8B220F034FD40
:205C400048B1837A3BB1867290F9090006FA00F0C0B21DF03FFB6D1C032DEED3032084F816
:205C6000200004F5C47021F0EEF8484621F064FAD34800252A460168056050F8081CD149DF
:205C800040F8085C04F15C001FF0A1FC40460068006B8047A168401A010BA06AC1F1FF32EF
:205CA00082422CBF08444FF0FF30A06294F82C0020B12069A16AB1EBC02F25D91FF088FD3F
:205CC000294600B13146081C1BD0BF4840F6090101804580417B06F00F0221F00F010A4360
:205CE0004273017B05F00F0321F00F0143EA010202732946416020F0FDFD418811F4406F0F
:205D0000FBD084F82C60A5621BF08EFDCE482946056002201FF090FA02201EF01BF91120F9
:205D200011F094FE207818B96068483021F0A3F8C648007810B90E2011F088FE94F82D00BE
:205D400020B184F82D5005201EF004F9C048606284F82050B4F9B000B4F9B210884214BF2A
:205D60000220072015F0FEFF02E0484621F0E4F927F008073AE720B104201EF0EBF800202D
:205D8000607065681DF08AFA38B12846ED696FF4807100224FF00073A847E06858B140463A
:205DA0000068006B8047E2686168801AC860000BC8600026E660A74904F15C0000221FF063
:205DC00006FC0221D4F89C0084F8201018B104F1DC0021F058F827F4006707E721F037F8DF
:205DE00006461FF0E5FCD4F894100028894600F08480002900F081809749042504F15C0098
:205E0000002284F820501FF0E2FB304621F094F904F5C47021F017F840460068006B804707
:205E2000E0604FF0010884F8018028461EF0AAF8D9F810006060D9F81000416AC90803D3EB
:205E4000036A294600229847404619F0E7FC606880F81580606811F0B9FE6568D5F808A05C
:205E600040F60A02D01F564600F1010C00E01E46736833B119888A4203D0884218BF8C45A2
:205E8000F5D100217160727B08F00F0322F00F0213437373D9F80C201288904224D06046F1
:205EA000904221D02B8E03B3696305F13002518095F83C0001F00F0320F00F00034385F83D
:205EC0003C3095F83D0008F00F0320F00F00034385F83D307260707B01F00F0520F00F0052
:205EE00045EA0001717300E0E160504620F002FD514640461FF0A0F902E0304621F01CF985
:205F000027F4806798E0C046E82D00200BF0D0F8D4F89C0008B927F002078DE08C010010B6
:205F20004E4A116841F08001116020B104201EF011F80020607020F08AFF8246D8F85400AC
:205F4000016804208847D0B1287DC0B1A068B0B18146D8F800002E69006B8047A0EB0900F1
:205F60002861000B2861B04202D280194008286140F6C41181422CBFB0F5967F2961504641
:205F800021F0DAF81DF08AF980B1EE6928466FF4807100224FF00073B047D4F894000028F1
:205FA00008BF47F0020701D018F07EFA2846AD6900214FF080630A46A84727F000573BE0FA
:205FC00014100440A1FD0100EC5A002020F03FFFD4F8AC6066B306F1280106C90A234FF0BA
:205FE000E0450B40154008BF002B21D106F1280191E8000306F1280595E8060006F1280393
:2060000022EA090221EA080183E8060021F094F8B16879B1B9F1000F08BFB8F1000F09D0F3
:206020003069B6F93010B5684B464246A84701E021F082F827F4804727B104F1DC0039463D
:2060400020F021FFBDE8FC8700000460AA8E0200CD520100114B010091570200CC210840AE
:206060002DE9F04FADF17C0D1B91C0491C923CC9064610A83CC00EC980E80E0000248DF846
:206080004240327F8DF84340B08D8DF84D40D6F828C0ADF844401746ADF85A00F0898DF83D
:2060A00054706146ADF84A00087800F00303022B8DF8400000F3FD8123461D93491C1E937E
:2060C00043083CD200F00C0EBEF10C0F0CD043093CBF11F8013B8DF84230BEF1080F04BFAB
:2060E00001238DF84C3001D08DF84C40BEF10C0F0AD0737903F00303012B0CD140F00C00CB
:2061000073898DF8400004E04D780B78891C03EB0523ADF84430430911D24D780B78891CA2
:2061200003EB0523ADF846300B784D78891C03EB0523ADF8483011F8013B8DF8433011F8C8
:20614000013B30F07F058DF855301ED00B7833F003058DF8413040F0A88103F0030EBEF1B7
:20616000030F00F0A28113F0030F01F101010ED011F8013B00F00305022D8DF8573004BFD8
:2061800011F8013B8DF8583001E08DF841401491A1EB0C017F1AFFB2BA42C0F28681D21B9C
:2061A0008DF85470D1B28DF84D100F4300F08181C10907D370891CF053F9002840F07981A6
:2061C0009DF8400000F00C012746091F08BF0127820932D301221E9279B3B28920F09CFCF7
:2061E000904202D1F08D000A0DD220F095FC904221D0F18D080A38BF101C07D39DF84000CE
:2062000000F003032DE07089ADF85A20804620F083FCBDF85A10884205D040461AF000FBC5
:20622000002800F04681A448026810A940469047002840F03E819DF84000F18D00F00303B3
:206240000A0A0ED2C2090CD39DF8412012F0030F07D100F00C020C2A03D0082A1CBF012287
:206260001D92DFF86082022B00F00081012B00F0CE8010F0030F40F01C81904890F82F0040
:20628000012803D1B579002D00F013819DF8540002221A900B0A9DF84240BDF846B0BDF8DF
:2062A00048A09DF855E09DF857C0DDF850908DF86420B0899DF84350ADF85C0075D245468E
:2062C00005F11C021468002F52D11D9F17B110A914F0BFFA7A484178022936D10078012894
:2062E00033D1B07C002830D070891CF0B9F8022801D0707948B37449B2893C208B1F33F888
:20630000064F944204D19C78F77CBC4200F0D180401EF4D16878891F3C234FF6FE7731F8CA
:20632000064FA74202D05B1EF9D1C2E00A80F27C8A700C228A8004211CF0D2F828B9687882
:2063400004214FF4FA7220F048FDF07C1E9F00901C9D0197594C0295B07C1B9B0390B4F8AD
:20636000482017A910A812F027FBA2E0B08C0200307C002C8DF8560000F09B8020F0CCFBC4
:20638000BDF85C20904240F0948030791E9F00901C9D01971B9A02951D9B039196F8300019
:2063A00010A9049017A8A04783E08DF820208DF822508DF82340ADF830107089ADF8180048
:2063C0008DF835E0ADF826B0ADF828A0CDF82C901A9B8DF836C0327CADF82A3035798DF8AA
:2063E0003220B47C8DF8335096F832108DF83440324F8DF83810B7F84800ADF8240096F8AE
:2064000030708DF8377006A806F0ECFD51E01D9FB58937B1080A04D2284610A914F019FAEA
:20642000B5899DF85400B6791030C0B21FF069F8071C3ED07D81022038703E737C709DF8B9
:2064400054203A7207F110057D609DF84000800928BF01247C72149978681FF09BFE45461A
:206460006D1C287839461AF0E9FE22E09DF84100B189454624352B6810F0030F10D110A84F
:2064800007901248ADF8181006A91DF0CBFE80B1062141730068407B21461BF029FC08E00B
:2064A0003BB110A82246984703E08DF84D408DF854401FB0BDE8F08F804900201441002092
:2064C000784500202C47002034030020731002002DE9F04F4FF0FF084146ADF14C0D0E91B8
:2064E0000F914FF0000910914E46089609960A96AD4C0B9604F1300B0C96E0680D964946BC
:2065000011919EE0E068710306AA042320F0E4FB119903AA30461FF089FB02AA3046012135
:206520001FF084FB3046022101AA1FF07FFB069800F0FF0028709DF81900069F6870C7F3F6
:206540000140E8709DF80E30AB702878FF2834D0BDF80C70FE2830D04FF6FF70B8422AD1E9
:2065600007A81CF04BFCE06871034FF088524FF4005320F0B1FBB8484FF4005750F8041DEF
:206580003F1FBFB2B1F1FF3F07F1885201D1032FF4D810684FF0010A514600F0FF03FF2B35
:2065A00018BF8A46491C000A0529F6DB106007981FF0D8FD5744EF8001E01020E8809DF8BB
:2065C0000A00BDF8087028719DF806302F81BDF804206B7129786A81E068FF292AD0FE299E
:2065E00022D07E291AD07C2912D078290BD0702904D00D99491CC9B20D9120E00C99491C7A
:20660000C9B20C911BE00B99491CC9B20B9116E00A990F96491CC9B20A9110E009990E9658
:20662000491CC9B209910AE00899B046491CC9B2089104E009F1010710965FFA87F9761CEF
:20664000F6B2E578B54200F31F810D9F002F38D10898022835DA0C98022832DA0998022849
:206660002FDA4D452BD00C98C0B90898A0B90B980A99084325D01EF04FFB854219DCB9F12A
:20668000000F14D094F83200FE211DF003FCE5780120DDF8408015E0012013E0089860B949
:2066A000B9F1000F07D11EF037FB854201DC062008E0032006E00220EBE7022002E01198AD
:2066C00000E004200028A07000F0C880401E49D0401E00F0A980401E06D0401E00F09780BF
:2066E000801E00F093800AE11EF016FB05460C2084F83C5015FB00B0817E84F83D10C07EAA
:2067000084F83E000EF0BEFFE2782D1895FBF2F050432D1AE8B284F83200401C90FBF2F107
:206720005143401A84F831007C201CF07FFDFF2810D17E201CF07AFDFF280BD1FF201CF043
:2067400075FDFF2806D178201CF070FDFF2808BF94F8310084F833000C2110FB01B0808B6A
:20676000E0868BE00F9F08F1010090FBF5F184F832806943FF2FA0EB0100C1B284F831106B
:2067800014D10E98FF2804D10C200E9111FB00B004E00146880000EBC100584484F8331031
:2067A000808BE086ABE0C046244300203A46D0B2910084F8330001EBC2015944898B17296E
:2067C000E18640F29C80C91F01AA89B212F0A8FF9DF80F00C0083BD3119F0097BDF81220E5
:2067E000E18E94F833000323891AC91F01AA89B20AF0B4FB002840F08280BDF810100029D3
:206800007DD09DF814001AF0F3FC78E0FEE7119EB54223DD304611F0B9F86178E578761CB6
:20682000F6B201436170F3E708F1010084F8328090FBF5F16943401A84F831005FFA88F0A4
:2068400011F0A4F86070FE215FFA88F01DF022FB119802F095FC52E00020001111986D1EEE
:2068600084F831000C2184F8325010FB01B184F83300898BE1867E211DF00CFB94F83200E8
:20688000FE211DF007FB3AE00C2116FB01B506AA0423710320F020FA1199304603AA1FF06B
:2068A000C5F9304602AA01211FF0C0F93046022101AA1FF0BBF90699163501F0FF0201F03A
:2068C000FF00FF2A09D0FE2A07D07E2A05D07C2A03D0782A18BF702A0AD1119F47B9C1F370
:2068E0008542032A04D19622B2EB116F3FF422AE304611F04BF8002860703FF403AE13B09E
:20690000BDE8F08F2DE9F04FC24CC44AA0790E46F108ADF11C0D80F07281BF49330C07D331
:20692000DFF8FCB24FF6FF7A9146AAF1010A42E00F78710B27D2300A28BF86F0800080F0F2
